{"abi":[{"type":"function","name":"getConfig","inputs":[{"name":"fundId","type":"bytes32","internalType":"bytes32"}],"outputs":[{"name":"config","type":"tuple","internalType":"struct DivestmentRegistry.DivestmentConfig","components":[{"name":"holderSplitBps","type":"uint16","internalType":"uint16"},{"name":"ownerSplitBps","type":"uint16","internalType":"uint16"},{"name":"triggerType","type":"uint8","internalType":"uint8"},{"name":"triggerParams","type":"bytes","internalType":"bytes"},{"name":"distributionCurrency","type":"address","internalType":"address"},{"name":"creator","type":"address","internalType":"address"},{"name":"registeredAt","type":"uint64","internalType":"uint64"}]}],"stateMutability":"view"},{"type":"function","name":"registerConfig","inputs":[{"name":"fundId","type":"bytes32","internalType":"bytes32"},{"name":"holderSplitBps","type":"uint16","internalType":"uint16"},{"name":"ownerSplitBps","type":"uint16","internalType":"uint16"},{"name":"triggerType","type":"uint8","internalType":"uint8"},{"name":"triggerParams","type":"bytes","internalType":"bytes"},{"name":"distributionCurrency","type":"address","internalType":"address"}],"outputs":[],"stateMutability":"nonpayable"},{"type":"function","name":"registered","inputs":[{"name":"","type":"bytes32","internalType":"bytes32"}],"outputs":[{"name":"","type":"bool","internalType":"bool"}],"stateMutability":"view"},{"type":"event","name":"ConfigRegistered","inputs":[{"name":"fundId","type":"bytes32","indexed":true,"internalType":"bytes32"},{"name":"creator","type":"address","indexed":true,"internalType":"address"}],"anonymous":false},{"type":"error","name":"AlreadyRegistered","inputs":[{"name":"fundId","type":"bytes32","internalType":"bytes32"}]},{"type":"error","name":"InvalidSplitBps","inputs":[{"name":"holderSplitBps","type":"uint16","internalType":"uint16"},{"name":"ownerSplitBps","type":"uint16","internalType":"uint16"}]}],"bytecode":{"object":"0x6080604052348015600e575f5ffd5b50610e588061001c5f395ff3fe608060405234801561000f575f5ffd5b506004361061003f575f3560e01c806314196fa3146100435780635524d5481461005f5780636dd5b69d1461008f575b5f5ffd5b61005d600480360381019061005891906107cf565b6100bf565b005b61007960048036038101906100749190610879565b6103e8565b60405161008691906108be565b60405180910390f35b6100a960048036038101906100a49190610879565b610405565b6040516100b69190610a2f565b60405180910390f35b61271085876100ce9190610a7c565b61ffff16146101165785856040517fbefb231b00000000000000000000000000000000000000000000000000000000815260040161010d929190610ac0565b60405180910390fd5b60015f8881526020019081526020015f205f9054906101000a900460ff161561017657866040517f77caf67200000000000000000000000000000000000000000000000000000000815260040161016d9190610af6565b60405180910390fd5b6001805f8981526020019081526020015f205f6101000a81548160ff0219169083151502179055506040518060e001604052808761ffff1681526020018661ffff1681526020018560ff16815260200184848080601f0160208091040260200160405190810160405280939291908181526020018383808284375f81840152601f19601f8201169050808301925050505050505081526020018273ffffffffffffffffffffffffffffffffffffffff1681526020013373ffffffffffffffffffffffffffffffffffffffff1681526020014267ffffffffffffffff168152505f5f8981526020019081526020015f205f820151815f015f6101000a81548161ffff021916908361ffff1602179055506020820151815f0160026101000a81548161ffff021916908361ffff1602179055506040820151815f0160046101000a81548160ff021916908360ff16021790555060608201518160010190816102dc9190610d53565b506080820151816002015f6101000a81548173ffffffffffffffffffffffffffffffffffffffff021916908373ffffffffffffffffffffffffffffffffffffffff16021790555060a0820151816003015f6101000a81548173ffffffffffffffffffffffffffffffffffffffff021916908373ffffffffffffffffffffffffffffffffffffffff16021790555060c08201518160030160146101000a81548167ffffffffffffffff021916908367ffffffffffffffff1602179055509050503373ffffffffffffffffffffffffffffffffffffffff16877f7151a0943e85a892db296b50272d082b77d37d95b4fd920aa76f9518dfedd72760405160405180910390a350505050505050565b6001602052805f5260405f205f915054906101000a900460ff1681565b61040d6105f4565b5f5f8381526020019081526020015f206040518060e00160405290815f82015f9054906101000a900461ffff1661ffff1661ffff1681526020015f820160029054906101000a900461ffff1661ffff1661ffff1681526020015f820160049054906101000a900460ff1660ff1660ff16815260200160018201805461049190610b69565b80601f01602080910402602001604051908101604052809291908181526020018280546104bd90610b69565b80156105085780601f106104df57610100808354040283529160200191610508565b820191905f5260205f20905b8154815290600101906020018083116104eb57829003601f168201915b50505050508152602001600282015f9054906101000a900473ffffffffffffffffffffffffffffffffffffffff1673ffffffffffffffffffffffffffffffffffffffff1673ffffffffffffffffffffffffffffffffffffffff168152602001600382015f9054906101000a900473ffffffffffffffffffffffffffffffffffffffff1673ffffffffffffffffffffffffffffffffffffffff1673ffffffffffffffffffffffffffffffffffffffff1681526020016003820160149054906101000a900467ffffffffffffffff1667ffffffffffffffff1667ffffffffffffffff16815250509050919050565b6040518060e001604052805f61ffff1681526020015f61ffff1681526020015f60ff168152602001606081526020015f73ffffffffffffffffffffffffffffffffffffffff1681526020015f73ffffffffffffffffffffffffffffffffffffffff1681526020015f67ffffffffffffffff1681525090565b5f5ffd5b5f5ffd5b5f819050919050565b61068681610674565b8114610690575f5ffd5b50565b5f813590506106a18161067d565b92915050565b5f61ffff82169050919050565b6106bd816106a7565b81146106c7575f5ffd5b50565b5f813590506106d8816106b4565b92915050565b5f60ff82169050919050565b6106f3816106de565b81146106fd575f5ffd5b50565b5f8135905061070e816106ea565b92915050565b5f5ffd5b5f5ffd5b5f5ffd5b5f5f83601f84011261073557610734610714565b5b8235905067ffffffffffffffff81111561075257610751610718565b5b60208301915083600182028301111561076e5761076d61071c565b5b9250929050565b5f73ffffffffffffffffffffffffffffffffffffffff82169050919050565b5f61079e82610775565b9050919050565b6107ae81610794565b81146107b8575f5ffd5b50565b5f813590506107c9816107a5565b92915050565b5f5f5f5f5f5f5f60c0888a0312156107ea576107e961066c565b5b5f6107f78a828b01610693565b97505060206108088a828b016106ca565b96505060406108198a828b016106ca565b955050606061082a8a828b01610700565b945050608088013567ffffffffffffffff81111561084b5761084a610670565b5b6108578a828b01610720565b935093505060a061086a8a828b016107bb565b91505092959891949750929550565b5f6020828403121561088e5761088d61066c565b5b5f61089b84828501610693565b91505092915050565b5f8115159050919050565b6108b8816108a4565b82525050565b5f6020820190506108d15f8301846108af565b92915050565b6108e0816106a7565b82525050565b6108ef816106de565b82525050565b5f81519050919050565b5f82825260208201905092915050565b8281835e5f83830152505050565b5f601f19601f8301169050919050565b5f610937826108f5565b61094181856108ff565b935061095181856020860161090f565b61095a8161091d565b840191505092915050565b61096e81610794565b82525050565b5f67ffffffffffffffff82169050919050565b61099081610974565b82525050565b5f60e083015f8301516109ab5f8601826108d7565b5060208301516109be60208601826108d7565b5060408301516109d160408601826108e6565b50606083015184820360608601526109e9828261092d565b91505060808301516109fe6080860182610965565b5060a0830151610a1160a0860182610965565b5060c0830151610a2460c0860182610987565b508091505092915050565b5f6020820190508181035f830152610a478184610996565b905092915050565b7f4e487b71000000000000000000000000000000000000000000000000000000005f52601160045260245ffd5b5f610a86826106a7565b9150610a91836106a7565b9250828201905061ffff811115610aab57610aaa610a4f565b5b92915050565b610aba816106a7565b82525050565b5f604082019050610ad35f830185610ab1565b610ae06020830184610ab1565b9392505050565b610af081610674565b82525050565b5f602082019050610b095f830184610ae7565b92915050565b7f4e487b71000000000000000000000000000000000000000000000000000000005f52604160045260245ffd5b7f4e487b71000000000000000000000000000000000000000000000000000000005f52602260045260245ffd5b5f6002820490506001821680610b8057607f821691505b602082108103610b9357610b92610b3c565b5b50919050565b5f819050815f5260205f209050919050565b5f6020601f8301049050919050565b5f82821b905092915050565b5f60088302610bf57fffffffffffffffffffffffffffffffffffffffffffffffffffffffffffffffff82610bba565b610bff8683610bba565b95508019841693508086168417925050509392505050565b5f819050919050565b5f819050919050565b5f610c43610c3e610c3984610c17565b610c20565b610c17565b9050919050565b5f819050919050565b610c5c83610c29565b610c70610c6882610c4a565b848454610bc6565b825550505050565b5f5f905090565b610c87610c78565b610c92818484610c53565b505050565b5f5b82811015610cb857610cad5f828401610c7f565b600181019050610c99565b505050565b601f821115610d0b5782821115610d0a57610cd781610b99565b610ce083610bab565b610ce985610bab565b6020861015610cf6575f90505b808301610d0582840382610c97565b505050505b5b505050565b5f82821c905092915050565b5f610d2b5f1984600802610d10565b1980831691505092915050565b5f610d438383610d1c565b9150826002028217905092915050565b610d5c826108f5565b67ffffffffffffffff811115610d7557610d74610b0f565b5b610d7f8254610b69565b610d8a828285610cbd565b5f60209050601f831160018114610dbb575f8415610da9578287015190505b610db38582610d38565b865550610e1a565b601f198416610dc986610b99565b5f5b82811015610df057848901518255600182019150602085019450602081019050610dcb565b86831015610e0d5784890151610e09601f891682610d1c565b8355505b6001600288020188555050505b50505050505056fea2646970667358221220230f09b66b55b97be5287e464b6fd4298e21df6483b0256de09018bbcb47220364736f6c63430008210033","linkReferences":{}},"methodIdentifiers":{"getConfig(bytes32)":"6dd5b69d","registerConfig(bytes32,uint16,uint16,uint8,bytes,address)":"14196fa3","registered(bytes32)":"5524d548"},"id":19}